:04000000B5EF15F053
:08000800046ED8CF05F0E0CF33
:1000100006F00001E9CF0CF0EACF07F0E1CF08F0DD
:10002000E2CF09F0D9CF0AF0DACF0BF0F3CF12F01C
:10003000F4CF13F0FACF14F000C00EF001C00FF0AF
:1000400002C010F003C011F0F2AA2AEF00F0F2B4DF
:10005000E7EF00F00EC000F00FC001F010C002F09A
:1000600011C003F00CC0E9FF07C0EAFF078E08C00B
:10007000E1FF09C0E2FF0AC0D9FF0BC0DAFF12C0DE
:10008000F3FF13C0F4FF14C0FAFF045006C0E0FFF2
:1000900005C0D8FF1000F2CF0DF0F29EF76AB00F46
:1000A000F66E000EF7220900F5500DBEF28E12001A
:1000B000280C01060C00454C494A4120454C204D76
:1000C0004F444F204445205245465553494F4E20FA
:1000D00000000C002020202A434F4E454354414449
:1000E0004F2A200007000A54434B20312041424947
:1000F0004552544F212121000A54434B20322041C4
:1001000042494552544F212121000C004D4F444F8C
:100110003A2000000C004C412054454D50455241BE
:10012000545552412045532044454D415349414483
:100130004F20414C5441205041524120494E4943A7
:100140004941522000000C0050524543414C454E5D
:1001500054414D49454E544F0000543A000073003D
:100160000C002043414C454E54414D49454E544F9F
:100170000000543A000073000C002020202052455B
:10018000465553494F4E0000543A000073000C008E
:100190002020454E465249414D49454E544F00009E
:1001A000543A000073000C004E4F524D414C495AD6
:1001B000414E444F2E2E2E2000000C0046494E206A
:1001C0004445205245465553494F4E200000165293
:1001D00002E1268002D01606172AF2942AEF00F0D8
:1001E000544F32434F4E54524F4C000046555349E2
:1001F0004F4E2D4900000C00EA6A8C0EE96EEF505C
:100200000DE0020E016E006A002EFED7012EFBD714
:10021000970E006E002EFED7EF2EF3D712007EB1A0
:1002200002D08B9801D08B8894987EB302D08B9AA1
:1002300001D08B8A949A7EB502D08B9C01D08B8C96
:10024000949C7EB702D08B9E01D08B8E949E000032
:10025000898C929C00D000D0899C929C12007F6B6C
:100260009488000E82B8010E7F13948A000E82BA21
:10027000010E006ED890003600507F13948C000E53
:1002800082BC010E006E00360036FC0E00160050D7
:100290007F13948E000E82BE010E006E0036003673
:1002A0000036F80E001600507F137FC001F01200D8
:1002B0009488948A948C948E898A929A0000898C6E
:1002C000929C0000CCDF01C07EF0899C929C0000D3
:1002D000898C929C00D0C3DF01C07DF0899C929CE8
:1002E0009498949A949C949E7E39006EF00E001619
:1002F00000507D11016E83EF01F0929C9298929ACA
:1003000089989298D5D701C07DF001BEFBD77B5369
:1003100002E1899801D0898892980000899A929A7E
:100320000000899C929C7C397D6F0F0E7D177DC0EB
:100330007EF075DF7C510F0B7D6F7E6F70DF1200DA
:100340009498949A949C949E929C9298929A89984C
:100350009298899A929A899C929C0F0E8C6F4CDF8E
:10036000010E476E4750030808E3030E7E6F57DF08
:10037000050E8C6F41DF472AF5D7020E7E6F4FDFE7
:10038000050E8C6F39DF476A475003080EE3036A96
:100390004750F2CF48F0F29E7EDE48BEF28E486EA5
:1003A0007B6B7C6FAADF472AEFD7F8EF15F0473653
:1003B00047364736F80E4716380E4716475040095D
:1003C0004B6E7B6B7C6F99DF4A6A4A50070812E3D9
:1003D00049C003F04850482AD8B4492AE96E03C0FE
:1003E000EAFFEFCF4BF0010E7B6F4BC07CF085DF57
:1003F0004A2AEBD70AEF16F0782D01D003D0400E31
:10040000796F01D0796B010E775D79277951800979
:100410007A6F7B6B7C6F71DF12007651070A07E001
:100420000B0A0AE0060A10E0020A14E018D0010ED6
:10043000776F786FE1DF18D07B6B010E7C6F5DDF2B
:10044000020E8C6FD9DE10D0010E776F020E786F1E
:10045000D3DF0AD07B6B100E7C6F4FDF05D0010E0F
:100460007B6F76C07CF049DF12000900F5520CE08A
:10047000F6CF74F0F7CF75F0F5CF76F0CEDF74C01D
:10048000F6FF75C0F7FFF1D71200D8B203D0EA6AC1
:10049000970EE96E006A016A026A036A976B986BAD
:1004A000996B9A6B96519511941193112CE0200E33
:1004B0009B6FD8908F37903791379237973798370F
:1004C00099379A3796519A5D08E19551995D05E102
:1004D0009451985D02E19351975D0FE39351975FBB
:1004E0009451D8A0943D985F9551D8A0953D995FBF
:1004F0009651D8A0963D9A5FD880003601360236D4
:1005000003369B2FD6D797C0EFFF98C0ECFF99C05A
:10051000ECFF9AC0ECFF1200016A026A006A036AEB
:100520008A5102E1895118E0100E8B6FD8908737FD
:100530008837003603368A51035C02E18951005C3A
:1005400007E38951005ED8A003068A51035ED88074
:10055000013602368B2FEAD71200936B946B010E93
:10056000956FDA6AD96A986B8B0E976FEA6A8F0E6D
:10057000E96E98C0E2FF97C0E1FF95C096F0D89071
:10058000E550EE02F3509323F4509423962FF7D7BF
:1005900093C0DEFF94C093F0946BD8B0942B972B4C
:1005A000D8B4982B952B95510508E0E193EF03F013
:1005B000090E8C5F0BE3EA6A8C0EE96ED890EF327D
:1005C000EF5004E001D00000EF2EFDD702EF03F062
:1005D0008B6B88518B5D05E2FA0E8C6F0DDE8B2BD9
:1005E000F8D787C08CF008DE8B6B8A518B5D07E2F1
:1005F000A60E006E002EFED700008B2BF6D789C00A
:100600008CF0D6D71200D892926B0F0E916F420EDB
:10061000906F400E8F6F966B956B76C094F075C09F
:1006200093F033DF03C08AF002C089F001C088F084
:1006300000C087F0D8908A338933883387330A0E15
:10064000875D796F000E88597A6F000E89597B6F2C
:10065000000E8A597C6FD8927CC092F07BC091F0DA
:100660007AC090F079C08FF0966B956B030E946F03
:10067000E80E936F0ADF01C07EF000C07DF07EC0FF
:1006800088F07DC087F08A6BFA0E896F45DF01C064
:1006900082F07EC088F07DC087F08A6BFA0E896F89
:1006A0003BDF00C083F0D882EA6A870EE96E7CC027
:1006B00092F07BC091F07AC090F079C08FF0966B89
:1006C000956B030E946FE80E936FDFDE88C080F0A9
:1006D00087C07FF080C088F07FC087F08A6BFA0EF9
:1006E000896F1ADF01C081F080C088F07FC087F079
:1006F0008A6BFA0E896F10DF00C084F08A6B896BF9
:1007000078C088F077C087F08AC08EF089C08DF0FD
:1007100078C08CF077C08BF0926B916B030E906F6A
:10072000E80E8F6F1AD703C08AF002C089F001C0AB
:1007300088F000C087F0D892926B0F0E916F420E36
:10074000906F400E8F6F966B956B76C094F075C06E
:1007500093F09BDE03C08EF002C08DF001C08CF0E0
:1007600000C08BF0D8928AC092F089C091F088C006
:1007700090F087C08FF003C096F002C095F001C0E2
:1007800094F000C093F081DE01C086F000C085F0D7
:1007900086C003F08551D8B486078507876F03C0EC
:1007A00088F0875302E1885317E083C087F082C046
:1007B00088F084C089F081C08AF00ADF94908B8031
:1007C00083C087F082C088F084C089F081C08AF03D
:1007D000FFDE94908B90DCD7120074530CE1040080
:1007E000010E766FF40E756F786B7D0E776F0BDFF1
:1007F000C80E8C6F01DD742D11D00400010E766FD0
:100800004A0E756F786B640E776FFDDE010E766FA2
:10081000EE0E756F786B500E776FF5DE745102082F
:1008200014E10400020E766F580E756F786B7D0E22
:10083000776FE9DE640E8C6FDFDC020E766F580E88
:10084000756F786B7D0E776FDEDE7451030836E1CD
:100850000400020E766F580E756F786BE10E776F9D
:10086000D2DE020E756FC80E8C6FC6DC752FFBD7FB
:10087000020E766F580E756F786BE10E776FC3DEE0
:10088000020E756FC80E8C6FB7DC752FFBD7020E8A
:10089000766F580E756F786BE10E776FB4DE020ECF
:1008A000756FC80E8C6FA8DC752FFBD7020E766FA4
:1008B000580E756F786BE10E776FA5DE74510408E2
:1008C00009E10400020E766F580E756F786B7D0E8D
:1008D000776F99DE04001200EF520FE0EACF66F066
:1008E000E9CF65F0EFCF76F098DD66C0EAFF65C02E
:1008F000E9FFE92AD8B4EA2AEFD712006851016A61
:10090000675D03E267C000F00CD0006A080E696FF3
:10091000673700366851005CD8B0006E0136692F29
:10092000F7D71200015065C067F0640E686FE6DF0C
:1009300000C065F00150300E07E166A30CD066B729
:100940000AD066B9200E03D06697669966810126A3
:1009500001C076F062DD65C067F00A0E686FCEDF19
:1009600000C065F00150300E06E166B708D066A100
:1009700006D066B9200E012601C076F04EDD300E9D
:10098000652765C076F049DD12000400100E476E41
:10099000010E486E530E496E450E4A6E4C0E4B6E5C
:1009A000450E4C6E430E4D6E4E6E490E4F6E4F0E01
:1009B000506E4E0E516E3D0E526E3E0E536E4D0EEB
:1009C000546E4F0E556E440E566E4F0E576E586A4B
:1009D000200E596E5A6E5B6E5C6E5D6E4D0E5E6ED5
:1009E0004F0E5F6E440E606F4F0E616F200E626F90
:1009F000636B6481B40EF66E000EF76E36DD47C091
:100A000077F0010E786FF8DCB60EF66E000EF76E1A
:100A10002CDD640E8C6FFCEC00F04750800A5F0800
:100A200002E3100E476E936881CF18F018501C0B2C
:100A30001C0809E0040E746FD0DED20EF66E000EB4
:100A4000F76E13DD03D047060400D9D718A653D09C
:100A50001850080805E1D40EF66E000EF76E05DD9D
:100A600018B411D064A10FD0040E746FB6DE010E5D
:100A700048264850060802E2060E486E485202E137
:100A8000010E486E649118B811D064A10FD0040E05
:100A9000746FA3DE010E485E4850060802E2060E9F
:100AA000486E485202E1010E486E6491E40EF66E03
:100AB000000EF76EDADC010E776F786F9DDCEA6A64
:100AC000490EE96E09DF010E776F020E786F94DC34
:100AD000EA6A590EE96E00DF48C065F01B0E666FCA
:100AE00021DF936881CF18F018A403D018A801D093
:100AF00064810400ABD748C019F0010E746F6DDE3D
:100B0000040026EF17F00400476A486A192C9FD0AA
:100B1000F2CF49F0F29EA96AA69CA69EA680A85094
:100B200049BEF28E476EF2CF49F0F29E010EA96ED9
:100B3000A69CA69EA680A85049BEF28E486E47C0CD
:100B40001BF048C01AF0F2CF49F0F29E020EA96ED7
:100B5000A69CA69EA680A85049BEF28E476EF2CFF4
:100B600049F0F29E030EA96EA69CA69EA680A850F0
:100B700049BEF28E486E47C01DF048C01CF0F2CF4F
:100B800049F0F29E040EA96EA69CA69EA680A850CF
:100B900049BEF28E476EF2CF49F0F29E050EA96E65
:100BA000A69CA69EA680A85049BEF28E486E47C05D
:100BB0001FF048C01EF0F2CF49F0F29E060EA96E5B
:100BC000A69CA69EA680A85049BEF28E476EF2CF84
:100BD00049F0F29E070EA96EA69CA69EA680A8507C
:100BE00049BEF28E486E47C021F048C020F0F2CFD7
:100BF00049F0F29E080EA96EA69CA69EA680A8505B
:100C000049BEF28E226EF2CF49F0F29E090EA96E15
:100C1000A69CA69EA680A85049BEF28E236EF2CF57
:100C200049F0F29E0A0EA96EA69CA69EA680A85028
:100C300049BEF28E246EF2CF49F0F29E0B0EA96EE1
:100C4000A69CA69EA680A85049BEF28E256E19507D
:100C50000208D8A4A0D0F2CF49F0F29E100EA96EDF
:100C6000A69CA69EA680A85049BEF28E476EF2CFE3
:100C700049F0F29E110EA96EA69CA69EA680A850D1
:100C800049BEF28E486E47C01BF048C01AF0F2CF42
:100C900049F0F29E120EA96EA69CA69EA680A850B0
:100CA00049BEF28E476EF2CF49F0F29E130EA96E46
:100CB000A69CA69EA680A85049BEF28E486E47C04C
:100CC0001DF048C01CF0F2CF49F0F29E140EA96E40
:100CD000A69CA69EA680A85049BEF28E476EF2CF73
:100CE00049F0F29E150EA96EA69CA69EA680A8505D
:100CF00049BEF28E486E47C01FF048C01EF0F2CFCA
:100D000049F0F29E160EA96EA69CA69EA680A8503B
:100D100049BEF28E476EF2CF49F0F29E170EA96ED1
:100D2000A69CA69EA680A85049BEF28E486E47C0DB
:100D300021F048C020F0F2CF49F0F29E180EA96EC3
:100D4000A69CA69EA680A85049BEF28E226EF2CF27
:100D500049F0F29E190EA96EA69CA69EA680A850E8
:100D600049BEF28E236EF2CF49F0F29E1A0EA96EA2
:100D7000A69CA69EA680A85049BEF28E246EF2CFF5
:100D800049F0F29E1B0EA96EA69CA69EA680A850B6
:100D900049BEF28E256E19500308D8A4A0D0F2CF18
:100DA00049F0F29E200EA96EA69CA69EA680A85091
:100DB00049BEF28E476EF2CF49F0F29E210EA96E27
:100DC000A69CA69EA680A85049BEF28E486E47C03B
:100DD0001BF048C01AF0F2CF49F0F29E220EA96E25
:100DE000A69CA69EA680A85049BEF28E476EF2CF62
:100DF00049F0F29E230EA96EA69CA69EA680A8503E
:100E000049BEF28E486E47C01DF048C01CF0F2CFBC
:100E100049F0F29E240EA96EA69CA69EA680A8501C
:100E200049BEF28E476EF2CF49F0F29E250EA96EB2
:100E3000A69CA69EA680A85049BEF28E486E47C0CA
:100E40001FF048C01EF0F2CF49F0F29E260EA96EA8
:100E5000A69CA69EA680A85049BEF28E476EF2CFF1
:100E600049F0F29E270EA96EA69CA69EA680A850C9
:100E700049BEF28E486E47C021F048C020F0F2CF44
:100E800049F0F29E280EA96EA69CA69EA680A850A8
:100E900049BEF28E226EF2CF49F0F29E290EA96E63
:100EA000A69CA69EA680A85049BEF28E236EF2CFC5
:100EB00049F0F29E2A0EA96EA69CA69EA680A85076
:100EC00049BEF28E246EF2CF49F0F29E2B0EA96E2F
:100ED000A69CA69EA680A85049BEF28E256E1950EB
:100EE0000408D8A4A0D0F2CF49F0F29E300EA96E2B
:100EF000A69CA69EA680A85049BEF28E476EF2CF51
:100F000049F0F29E310EA96EA69CA69EA680A8501E
:100F100049BEF28E486E47C01BF048C01AF0F2CFAF
:100F200049F0F29E320EA96EA69CA69EA680A850FD
:100F300049BEF28E476EF2CF49F0F29E330EA96E93
:100F4000A69CA69EA680A85049BEF28E486E47C0B9
:100F50001DF048C01CF0F2CF49F0F29E340EA96E8D
:100F6000A69CA69EA680A85049BEF28E476EF2CFE0
:100F700049F0F29E350EA96EA69CA69EA680A850AA
:100F800049BEF28E486E47C01FF048C01EF0F2CF37
:100F900049F0F29E360EA96EA69CA69EA680A85089
:100FA00049BEF28E476EF2CF49F0F29E370EA96E1F
:100FB000A69CA69EA680A85049BEF28E486E47C049
:100FC00021F048C020F0F2CF49F0F29E380EA96E11
:100FD000A69CA69EA680A85049BEF28E226EF2CF95
:100FE00049F0F29E390EA96EA69CA69EA680A85036
:100FF00049BEF28E236EF2CF49F0F29E3A0EA96EF0
:10100000A69CA69EA680A85049BEF28E246EF2CF62
:1010100049F0F29E3B0EA96EA69CA69EA680A85003
:1010200049BEF28E256E19500508D8A4A0D0F2CF83
:1010300049F0F29E400EA96EA69CA69EA680A850DE
:1010400049BEF28E476EF2CF49F0F29E410EA96E74
:10105000A69CA69EA680A85049BEF28E486E47C0A8
:101060001BF048C01AF0F2CF49F0F29E420EA96E72
:10107000A69CA69EA680A85049BEF28E476EF2CFCF
:1010800049F0F29E430EA96EA69CA69EA680A8508B
:1010900049BEF28E486E47C01DF048C01CF0F2CF2A
:1010A00049F0F29E440EA96EA69CA69EA680A8506A
:1010B00049BEF28E476EF2CF49F0F29E450EA96E00
:1010C000A69CA69EA680A85049BEF28E486E47C038
:1010D0001FF048C01EF0F2CF49F0F29E460EA96EF6
:1010E000A69CA69EA680A85049BEF28E476EF2CF5F
:1010F00049F0F29E470EA96EA69CA69EA680A85017
:1011000049BEF28E486E47C021F048C020F0F2CFB1
:1011100049F0F29E480EA96EA69CA69EA680A850F5
:1011200049BEF28E226EF2CF49F0F29E490EA96EB0
:10113000A69CA69EA680A85049BEF28E236EF2CF32
:1011400049F0F29E4A0EA96EA69CA69EA680A850C3
:1011500049BEF28E246EF2CF49F0F29E4B0EA96E7C
:10116000A69CA69EA680A85049BEF28E256E195058
:101170000608D8A4A0D0F2CF49F0F29E500EA96E76
:10118000A69CA69EA680A85049BEF28E476EF2CFBE
:1011900049F0F29E510EA96EA69CA69EA680A8506C
:1011A00049BEF28E486E47C01BF048C01AF0F2CF1D
:1011B00049F0F29E520EA96EA69CA69EA680A8504B
:1011C00049BEF28E476EF2CF49F0F29E530EA96EE1
:1011D000A69CA69EA680A85049BEF28E486E47C027
:1011E0001DF048C01CF0F2CF49F0F29E540EA96EDB
:1011F000A69CA69EA680A85049BEF28E476EF2CF4E
:1012000049F0F29E550EA96EA69CA69EA680A850F7
:1012100049BEF28E486E47C01FF048C01EF0F2CFA4
:1012200049F0F29E560EA96EA69CA69EA680A850D6
:1012300049BEF28E476EF2CF49F0F29E570EA96E6C
:10124000A69CA69EA680A85049BEF28E486E47C0B6
:1012500021F048C020F0F2CF49F0F29E580EA96E5E
:10126000A69CA69EA680A85049BEF28E226EF2CF02
:1012700049F0F29E590EA96EA69CA69EA680A85083
:1012800049BEF28E236EF2CF49F0F29E5A0EA96E3D
:10129000A69CA69EA680A85049BEF28E246EF2CFD0
:1012A00049F0F29E5B0EA96EA69CA69EA680A85051
:1012B00049BEF28E256E0A0EF66E010EF76E35EC03
:1012C00002F0050E776F010E786FFCEC01F00C0E4A
:1012D000F66E010EF76E35EC02F019C065F01B0ECC
:1012E000666F92EC04F0040E496EFA0E8C6FFCEC03
:1012F00000F0492EFAD7040028EF17F076511008B5
:1013000005E0776F74377537772FFCD7928292900C
:101310008990939C8A9C00D0000076C077F08980E9
:10132000210E786F782FFED70136023680A2019009
:1013300080B201808990220E786F782FFED7772FA8
:10134000EED700008A8C9DEF0AF07651100805E078
:10135000776F74377537772FFCD792829290899088
:10136000939E8A9E00D0000076C077F08980210E7F
:10137000786F782FFED70136023680A2019080B2B6
:1013800001808990220E786F782FFED7772FEED7C5
:1013900000008A8EA8EF0AF08E0E006E78C001F071
:1013A00077C002F0036A015209E102C001F0026A4B
:1013B000080E005E015202E1006A08D0D89001BE1A
:1013C00004D0023601360006F9D7019E120077518B
:1013D000D8B4A5D0836F7B51D8B4A1D0835F05E387
:1013E0007F0E8327D8B09BD006D0810E835FD8A014
:1013F00096D0D8B494D083C000F0016A026A036A20
:10140000826B78C081F0818F79C080F07AC07FF0E4
:10141000190E836F7E517F5F0DE2010E805F0AE23D
:10142000815F08E2825F06E2822B812B802B7E5156
:101430007F2728D07D51805F12E2010E815F0FE28D
:10144000825F0DE2822B812B7D5180277E517F2789
:1014500019E3802B17E1812B15E1822B13D07C51EE
:101460008009815F0EE2010E825F0BE2822B7C51CC
:10147000800981277D518027E9E3812BE7E1822BD9
:10148000E5D70380832F01D00BD0D8907F378037EA
:1014900081378237D8900336023601368437BAD77F
:1014A00084A106D0D890013202320332843302D0B4
:1014B000000635E084BF1ED0D8907F378037813753
:1014C00082377E517F5F07E2010E805F04E2815F19
:1014D00002E2825F1AE37D51805F05E2010E815FC7
:1014E00002E2825F12E37C518009815F03E2010E18
:1014F000825F0BE3032A09E1022A07E1012A05E1E1
:10150000002A0DE001320232033278C083F07C51B0
:10151000831B83AF02D0018E06D0019E04D0006AE7
:10152000016A026A036A1200736B7351020818E3BE
:10153000756B746B100E766FE1D6015002C028F007
:1015400001C027F000D0756B746B100E766FFDD65E
:10155000015002C02AF001C029F000D0732BE5D75A
:1015600027A412D0E60EF66E000EF76E35EC02F0F0
:10157000746BEDEC03F0020E746FFA0E8C6FFCECE2
:1015800000F0742FFAD7F4D729A412D0F80EF66E13
:10159000000EF76E35EC02F0746BEDEC03F0020E0A
:1015A000746FFA0E8C6FFCEC00F0742FFAD7F4D73E
:1015B0002830766F2730756F763375337633753311
:1015C0001F0E761776C078F075C077F0E5DE03C0A1
:1015D0007AF002C079F001C078F000C077F07E6B3D
:1015E0007D6B7C6B810E7B6FF2DE03C02EF002C040
:1015F0002DF001C02CF000C02BF02A30766F29307E
:10160000756F76337533763375331F0E761776C064
:1016100078F075C077F0C0DE03C07AF002C079F0D0
:1016200001C078F000C077F07E6B7D6B7C6B810E23
:101630007B6FCDDE03C032F002C031F001C030F06C
:1016400000C02FF004001200800ED8B27C1B816B0A
:10165000826B78C080F07C51801B7751D8B4DCD08D
:101660007F6F006E7B51D8B4E0D07F5FD8B481D05B
:101670003DE37CC085F0858F7DC084F07EC083F023
:10168000826BD89085338433833382337F2FF8D7AE
:1016900080AF03D08181DDD081917F918189EA6A19
:1016A0007A0EE96EE9D0819980BF0AD07FA113D06C
:1016B0008533843383338233002AD8B4C5D00BD02A
:1016C00085BF0CD0D89082378337843785370006A2
:1016D000D8B4BAD0F5D7818D6BD0819D78C080F019
:1016E00078AF02D0858FA9D0859FA7D07BC07FF02F
:1016F0007BC000F077517F5F78C085F0858F79C01F
:1017000084F07AC083F0826BD8908533843383333E
:1017100082337F2FF8D780AF03D081839AD0819313
:101720007F91818BEA6A7E0EE96EA6D0819B80BF95
:101730000AD07FA113D08533843383338233002AC8
:10174000D8B482D00BD085BF0CD0D89082378337E5
:10175000843785370006D8B477D0F5D7818F28D065
:10176000819F7CC080F07CAF02D0858F66D0859F42
:1017700064D07CC085F0858F7DC084F07EC083F00E
:1017800080AF04D0859F818564D08195826B7F91E5
:10179000EA6A7A0EE96E70D080BF1CD078C080F003
:1017A0007FA106D08533843383338233002A4CE013
:1017B00082AF0BD0832B09E1842B07E1852B05E158
:1017C000853384338333002A3FE081BD86D781BFD0
:1017D000C7D71CD0800E851B85AF04D03AD07CC003
:1017E00080F00AD078C080F0855306E1845304E18C
:1017F000835302E1006A21D085BF08D0D890823798
:10180000833784378537002EF7D71ED080AF02D0BC
:10181000858F13D0859F11D07BC000F07CC085F0F0
:101820007DC084F07EC083F008D077C000F078C01F
:1018300085F079C084F07AC083F085C001F084C05F
:1018400002F083C003F034D0006A016A026A036ABE
:101850002FD0826B831F841F851F821F822B05E17F
:10186000832B03E1842B01E1852B81B115D781B353
:1018700056D781B58AD7B3D7EF50832705E3842B9A
:1018800003E1852BD8B47F81ED52EF50842703E329
:10189000852BD8B47F81ED52EF50EFBE01D0800A86
:1018A0008527D8B07F8181B9FED681BB3FD774D759
:1018B000120074C07BF078517B1B7BAF05D0D894AD
:1018C000D89074BFD8802FD074C07BF077C07CF0E4
:1018D00073517C5F06E07BAF26D0D850010AD86EEA
:1018E00022D078C07CF074517C5F06E07BAF1BD0C7
:1018F000D850010AD86E17D079C07CF075517C5F42
:1019000006E07BAF10D0D850010AD86E0CD07AC058
:101910007CF076517C5F06E07BAF05D0D850010AA1
:10192000D86E01D0D89012007351D8B471D0006E27
:101930007751D8B46DD0002604E3810E002668E20A
:1019400004D07F0E005E64E363E074C07BF07851E6
:101950007B1B748F788F76517A03F4CF7DF07551AD
:101960007903F4CF03F0F3CF7CF07A03F3507D27B3
:10197000F4507C23000E032276517903F3507D2727
:10198000F4507C23000E026A0322022274517A036F
:10199000F3507C27F4500322000E02227451790385
:1019A000F3500326F4500222000E016A0122765100
:1019B0007803F3507C27F4500322000E0222012208
:1019C00075517803F3500326F4500222000E0122D1
:1019D00074517803F3500226F4500122002A01BE0C
:1019E00005D07C370336023601360006000E7CAF88
:1019F0000AD0032A02220122015005E1025003E12C
:101A0000035001E1002A7BBF018E7BAF019E04D011
:101A1000006A016A026A036A12008E0E006E735138
:101A2000005E74C002F075C001F0028E005209E041
:101A3000D890025202E1015204E002320132002E3B
:101A4000F7D774AF05D0011E021E012AD8B4022AAE
:101A50001200386A376A366A356A3C6A3B6A7A0E1F
:101A60003A6E880E396E60DD5250040DF350036AF1
:101A70002B0FE96E000E0320EA6EEFCF63F0ECCF80
:101A800064F0ECCF65F0ECCF66F034C078F033C092
:101A900077F082DC03C056F002C055F001C054F06C
:101AA00000C053F0D88256C07AF055C079F054C0C7
:101AB00078F053C077F066C07EF065C07DF064C0FA
:101AC0007CF063C07BF0C0DD03C05AF002C059F067
:101AD00001C058F000C057F05F0E766F290E756F89
:101AE0004B0E746F770E736F5AC07AF059C079F04D
:101AF00058C078F057C077F017DF03C076F002C007
:101B000075F001C074F000C073F0D89203C07AF091
:101B100002C079F001C078F000C077F06EC07EF0AE
:101B20006DC07DF06CC07CF06BC07BF08DDD03C0C0
:101B30005EF002C05DF001C05CF000C05BF0D882D6
:101B40005AC07AF059C079F058C078F057C077F091
:101B500072C07EF071C07DF070C07CF06FC07BF011
:101B600073DDA00E766F1A0E756F1F0E746F7E0EEA
:101B7000736F03C07AF002C079F001C078F000C042
:101B800077F0D2DE03C062F002C061F001C060F005
:101B900000C05FF0766B910E756F7E0E746F7B0EDA
:101BA000736F5AC07AF059C079F058C078F057C0B6
:101BB00077F0BADED8925EC07AF05DC079F05CC092
:101BC00078F05BC077F003C07EF002C07DF001C00A
:101BD0007CF000C07BF038DD03C076F002C075F009
:101BE00001C074F000C073F0D89203C07AF002C054
:101BF00079F001C078F000C077F062C07EF061C07B
:101C00007DF060C07CF05FC07BF01EDD03C06AF039
:101C100002C069F001C068F000C067F03CC076F017
:101C20003BC075F03AC074F039C073F06AC07AF006
:101C300069C079F068C078F067C077F03ADE08E3F1
:101C40003CC06AF03BC069F03AC068F039C067F048
:101C50006AC076F069C075F068C074F067C073F050
:101C600038C07AF037C079F036C078F035C077F0F8
:101C700020DE08E338C06AF037C069F036C068F08B
:101C800035C067F06AC076F069C075F068C074F05E
:101C900067C073F0C2DE02C03EF001C03DF0525298
:101CA00013E13EC002F03DC001F0023201320232C7
:101CB0000132023201C0BEFF02320230300B006E30
:101CC000BD50CF0B0010BD6E525213E03EC002F06B
:101CD0003DC001F00232013202320132023201C053
:101CE000BBFF02320230300B006EBA50CF0B001037
:101CF000BA6E5EC06EF05DC06DF05CC06CF05BC033
:101D00006BF05AC072F059C071F058C070F057C0F3
:101D10006FF00400640E8C6FFCEC00F012005F505A
:101D2000B6085F6E036A60C063F0608FD89060335E
:101D30006133623303320232013200325F2EF6D752
:101D400063AF0BD0001E011E021E031E002AD8B472
:101D5000012AD8B4022AD8B4032AD6EF0EF0E950EB
:101D6000576E5650596E19E055C076F054C075F054
:101D700053C074F052C073F07A6B796B200E786F99
:101D8000820E776FD1DD03C055F002C054F001C060
:101D900053F000C052F0592EE7D755C062F054C03E
:101DA00061F053C060F052C05FF0B9D703C055F086
:101DB00002C054F001C053F000C052F055AE0DD037
:101DC0005706578A521E531E541E551E522AD8B407
:101DD000532AD8B4542AD8B4552A3B0E5E6E9A0EB4
:101DE0005D6ECA0E5C6E5B6A0A0E596E5650D8B4B0
:101DF000572AD882EA6A520EE96E55C092F054C052
:101E000091F053C090F052C08FF05EC096F05DC06C
:101E100095F05CC094F05BC093F045EC02F001508B
:101E200000520FE15628595C0CE057500CE00F0BA4
:101E3000595C01E03BE257BE39D057BC04D0200EBC
:101E400030D0200E571657AA0DD0579A5650D8A406
:101E500057060050576E2D0E766F0DEC02F057505E
:101E6000006E576A5650595C0BE10050576E2E0EAB
:101E7000766F0DEC02F05750006E200E5716000ED4
:101E8000300E57AA0ED0579A5650D8A45706005075
:101E9000576E2D0E766F0DEC02F05750006E576A9C
:101EA000300E002600C076F00DEC02F0D8925EC035
:101EB00092F05DC091F05CC090F05BC08FF0966BCB
:101EC000956B946B0A0E936F45EC02F003C05EF0C5
:101ED00002C05DF001C05CF000C05BF0592E89D7F4
:101EE000120004004A6A496A486A476A1BC04CF0FB
:101EF0001AC04BF0506A4F6A4E6A4D6A100E516E0E
:101F0000176A22C016F0640E8C6FFCEC00F094ECA3
:101F10000AF0D8922EC07AF02DC079F02CC078F05B
:101F20002BC077F032C07EF031C07DF030C07CF045
:101F30002FC07BF024EC0BF003C055F002C054F02E
:101F400001C053F000C052F003C07AF002C079F033
:101F500001C078F000C077F07E6B7D6B7C6B800EEB
:101F60007B6FE7EC09F003C050F002C04FF001C0F6
:101F70004EF000C04DF0766B756B480E746F840E9A
:101F8000736F50C07AF04FC079F04EC078F04DC0FA
:101F900077F08FDC01E269E1140EF66E010EF76E48
:101FA00035EC02F051C077F0010E786FFCEC01F0D7
:101FB000746BEDEC03F0160EF66E010EF76E35EC59
:101FC00002F0640E8C6FFCEC00F05150800A530854
:101FD00002E3100E516E040094EC0AF0D8922EC069
:101FE0007AF02DC079F02CC078F02BC077F032C099
:101FF0007EF031C07DF030C07CF02FC07BF024EC4F
:102000000BF003C055F002C054F001C053F000C003
:1020100052F003C07AF002C079F001C078F000C03D
:1020200077F07E6B7D6B7C6B800E7B6FE7EC09F04D
:1020300003C050F002C04FF001C04EF000C04DF0A0
:1020400050C076F04FC075F04EC074F04DC073F0C4
:102050007A6B796B480E786F840E776F2ADC01E219
:10206000D8B403D0510604009DD70C0EBD6EBA6ED5
:10207000020E746FEDEC03F0460EF66E010EF76E75
:1020800035EC02F0010E776F786FFCEC01F0480E32
:10209000F66E010EF76E35EC02F0F28AC00EF21207
:1020A00026B0D0D04CC078F04BC077F0CCEC09F023
:1020B000D88203C07AF002C079F001C078F000C085
:1020C00077F050C07EF04FC07DF04EC07CF04DC028
:1020D0007BF024EC0BF003C055F002C054F001C0BB
:1020E00053F000C052F0786B22C077F0CCEC09F0CE
:1020F00055C07AF054C079F053C078F052C077F0F0
:1021000003C07EF002C07DF001C07CF000C07BF017
:10211000E7EC09F003C055F002C054F001C053F0E1
:1021200000C052F0786B17C077F0CCEC09F055C0C6
:1021300076F054C075F053C074F052C073F003C011
:102140007AF002C079F001C078F000C077F094EC2A
:102150000CF003C076F002C075F001C074F000C04E
:1021600073F05BDC02C034F001C033F0526A71DC02
:10217000010E526E6EDCD8922EC07AF02DC079F02E
:102180002CC078F02BC077F032C07EF031C07DF0EB
:1021900030C07CF02FC07BF024EC0BF003C055F076
:1021A00002C054F001C053F000C052F003C07AF0F6
:1021B00002C079F001C078F000C077F07E6B7D6BD3
:1021C0007C6B800E7B6FE7EC09F003C04AF002C025
:1021D00049F001C048F000C047F0010E776F020ED1
:1021E000786FFCEC01F0890EE96E4AC055F049C0E9
:1021F00054F048C053F047C052F0020E566EAFDDA7
:10220000020E766F0DEC02F0430E766F0DEC02F0CD
:102210000B0E776F020E786FFCEC01F05A0EF66E23
:10222000010EF76E35EC02F016C065F01B0E666FFE
:1022300092EC04F05E0EF66E010EF76E35EC02F0D5
:1022400004002ED7F29AF29CF29EF2BEFDD72690A1
:1022500004002EEF17F004004A6A496A486A476A88
:102260001DC04CF01CC04BF023C016F0176A94EC54
:102270000AF0D8922EC07AF02DC079F02CC078F0F8
:102280002BC077F032C07EF031C07DF030C07CF0E2
:102290002FC07BF024EC0BF003C054F002C053F0CD
:1022A00001C052F000C051F003C07AF002C079F0D2
:1022B00001C078F000C077F07E6B7D6B7C6B800E88
:1022C0007B6FE7EC09F003C050F002C04FF001C093
:1022D0004EF000C04DF0600EF66E010EF76E35EC5C
:1022E00002F0010E776F786FFCEC01F0620EF66E73
:1022F000010EF76E35EC02F0F28AC00EF21226B033
:10230000D3D04CC078F04BC077F0CCEC09F0D88239
:1023100003C07AF002C079F001C078F000C077F015
:1023200050C07EF04FC07DF04EC07CF04DC07BF0C1
:1023300024EC0BF003C054F002C053F001C052F083
:1023400000C051F0786B23C077F0CCEC09F054C09A
:102350007AF053C079F052C078F051C077F003C0E2
:102360007EF002C07DF001C07CF000C07BF0E7ECA5
:1023700009F003C054F002C053F001C052F000C095
:1023800051F0786B17C077F0CCEC09F054C076F0C0
:1023900053C075F052C074F051C073F003C07AF0AE
:1023A00002C079F001C078F000C077F094EC0CF036
:1023B00003C076F002C075F001C074F000C073F085
:1023C0000DEC0DF002C034F001C033F0526A29EC7C
:1023D0000DF0010E526E29EC0DF0D8922EC07AF05D
:1023E0002DC079F02CC078F02BC077F032C07EF091
:1023F00031C07DF030C07CF02FC07BF024EC0BF0BE
:1024000003C054F002C053F001C052F000C051F0BC
:1024100003C07AF002C079F001C078F000C077F014
:102420007E6B7D6B7C6B800E7B6FE7EC09F003C0ED
:102430004AF002C049F001C048F000C047F0010E68
:10244000776F020E786FFCEC01F0890EE96E4AC0DE
:1024500055F049C054F048C053F047C052F0020E46
:10246000566E7DDC020E766F0DEC02F0430E766F39
:102470000DEC02F00B0E776F020E786FFCEC01F0A2
:10248000720EF66E010EF76E35EC02F016C065F0B6
:102490001B0E666F92EC04F0760EF66E010EF76E70
:1024A00035EC02F004002BD7F29AF29CF29EF2BEB9
:1024B000FDD72690040030EF17F004004A6A496AFD
:1024C000486A476A1FC04CF01EC04BF024C016F08B
:1024D000176A94EC0AF0D8922EC07AF02DC079F0E9
:1024E0002CC078F02BC077F032C07EF031C07DF088
:1024F00030C07CF02FC07BF024EC0BF003C054F014
:1025000002C053F001C052F000C051F003C07AF095
:1025100002C079F001C078F000C077F07E6B7D6B6F
:102520007C6B800E7B6FE7EC09F003C050F002C0BB
:102530004FF001C04EF000C04DF0780EF66E010E67
:10254000F76E35EC02F0010E776F786FFCEC01F05E
:102550007A0EF66E010EF76E35EC02F0F28AC00EBE
:10256000F21226B0D4D04CC078F04BC077F0CCEC4F
:1025700009F0D88203C07AF002C079F001C078F087
:1025800000C077F050C07EF04FC07DF04EC07CF0B0
:102590004DC07BF024EC0BF003C054F002C053F0AC
:1025A00001C052F000C051F0786B24C077F0CCEC41
:1025B00009F054C07AF053C079F052C078F051C09D
:1025C00077F003C07EF002C07DF001C07CF000C057
:1025D0007BF0E7EC09F003C054F002C053F001C0F7
:1025E00052F000C051F0786B17C077F0CCEC09F0D6
:1025F00054C076F053C075F052C074F051C073F0FF
:1026000003C07AF002C079F001C078F000C077F022
:1026100094EC0CF003C076F002C075F001C074F0C9
:1026200000C073F00DEC0DF002C034F001C033F0C7
:10263000526A29EC0DF0010E526E29EC0DF0D89281
:102640002EC07AF02DC079F02CC078F02BC077F036
:1026500032C07EF031C07DF030C07CF02FC07BF006
:1026600024EC0BF003C054F002C053F001C052F050
:1026700000C051F003C07AF002C079F001C078F0D8
:1026800000C077F07E6B7D6B7C6B800E7B6FE7EC20
:1026900009F003C04AF002C049F001C048F000C090
:1026A00047F0010E776F020E786FFCEC01F0890E97
:1026B000E96E4AC055F049C054F048C053F047C0D5
:1026C00052F0020E566EAFEC0EF0020E766F0DEC6D
:1026D00002F0430E766F0DEC02F00B0E776F020ED8
:1026E000786FFCEC01F0880EF66E010EF76E35EC9B
:1026F00002F016C065F01B0E666F92EC04F08C0EB3
:10270000F66E010EF76E35EC02F004002AD7F29A4D
:10271000F29CF29EF2BEFDD72690040032EF17F035
:1027200004004A6A496A486A476A21C04CF020C0DE
:102730004BF025C016F0176A939A8A8A94EC0AF037
:10274000D8922EC07AF02DC079F02CC078F02BC032
:1027500077F032C07EF031C07DF030C07CF02FC009
:102760007BF024EC0BF003C054F002C053F001C026
:1027700052F000C051F003C07AF002C079F001C0FD
:1027800078F000C077F07E6B7D6B7C6B800E7B6F8A
:10279000E7EC09F003C050F002C04FF001C04EF06A
:1027A00000C04DF08E0EF66E010EF76E35EC02F0A5
:1027B000010E776F786FFCEC01F0900EF66E010E53
:1027C000F76E35EC02F0F28AC00EF21226B0D4D0C9
:1027D0004CC078F04BC077F0CCEC09F0D88250C0F8
:1027E0007AF04FC079F04EC078F04DC077F003C05A
:1027F0007EF002C07DF001C07CF000C07BF024ECD4
:102800000BF003C054F002C053F001C052F000C0FE
:1028100051F0786B25C077F0CCEC09F054C07AF019
:1028200053C079F052C078F051C077F003C07EF009
:1028300002C07DF001C07CF000C07BF0E7EC09F045
:1028400003C054F002C053F001C052F000C051F078
:10285000786B17C077F0CCEC09F054C076F053C019
:1028600075F052C074F051C073F003C07AF002C02A
:1028700079F001C078F000C077F094EC0CF003C060
:1028800076F002C075F001C074F000C073F00DEC7A
:102890000DF002C034F001C033F0526A29EC0DF0A3
:1028A000010E526E29EC0DF0D8922EC07AF02DC098
:1028B00079F02CC078F02BC077F032C07EF031C0B8
:1028C0007DF030C07CF02FC07BF024EC0BF003C017
:1028D00054F002C053F001C052F000C051F003C0E8
:1028E0007AF002C079F001C078F000C077F07E6B1A
:1028F0007D6B7C6B800E7B6FE7EC09F003C04AF0C8
:1029000002C049F001C048F000C047F0010E776FE7
:10291000020E786FFCEC01F0890EE96E4AC055F0AA
:1029200049C054F048C053F047C052F0020E566EF2
:10293000AFEC0EF0020E766F0DEC02F0430E766FE8
:102940000DEC02F00B0E776F020E786FFCEC01F0CD
:10295000A00EF66E010EF76E35EC02F016C065F0B3
:102960001B0E666F92EC04F0A40EF66E010EF76E6D
:1029700035EC02F004002AD7F29AF29CF29EF2BEE5
:10298000FDD72690040033EF17F00400BD6ABA6A41
:102990004A6A496A486A476A94EC0AF0D8922EC09B
:1029A0007AF02DC079F02CC078F02BC077F032C0CF
:1029B0007EF031C07DF030C07CF02FC07BF024EC85
:1029C0000BF003C04EF002C04DF001C04CF000C04F
:1029D0004BF003C07AF002C079F001C078F000C07B
:1029E00077F07E6B7D6B7C6B800E7B6FE7EC09F084
:1029F00003C04AF002C049F001C048F000C047F0EF
:102A0000A60EF66E010EF76E35EC02F094EC0AF0AD
:102A1000D8922EC07AF02DC079F02CC078F02BC05F
:102A200077F032C07EF031C07DF030C07CF02FC036
:102A30007BF024EC0BF003C04EF002C04DF001C05F
:102A40004CF000C04BF003C07AF002C079F001C036
:102A500078F000C077F07E6B7D6B7C6B800E7B6FB7
:102A6000E7EC09F003C04AF002C049F001C048F0A9
:102A700000C047F04AC076F049C075F048C074F015
:102A800047C073F07A6B796B480E786F840E776F5E
:102A900059EC0CF001E2D8B420D0010E776F786FBA
:102AA000FCEC01F0A80EF66E010EF76E35EC02F0AC
:102AB000010E776F020E786FFCEC01F0890EE96E63
:102AC0004AC055F049C054F048C053F047C052F0D6
:102AD000020E566EAFEC0EF099D7939A8A9ABA0E00
:102AE000F66E010EF76E35EC02F0010E776F786F1F
:102AF000FCEC01F0BC0EF66E010EF76E35EC02F048
:102B0000030E746FEDEC03F0080E4B6EFA0E8C6F33
:102B1000FCEC00F04B2EFAD7040034EF17F0166AE5
:102B2000176A186A196A1B6A1A6A1D6A1C6A1F6A80
:102B30001E6A216A206A226A236A246A256A26900C
:102B40002C6A2B6A366A356A346A336A346A336AA5
:102B5000386A376A366A356A3C6A3B6A3A6A396A61
:102B60003E6A3D6A040035EF17F0F86AD09E078E82
:102B7000700ED36ED350928292908990939C8A9CCF
:102B8000928292908990939E8A9E929689867C0EDC
:102B9000CB6E060ECA6E94943E0EBE6E1C0EBD6EBB
:102BA00094923E0EBB6E1C0EBA6E166A176A186AB5
:102BB000196A2690346A336A386A376A366A356A1F
:102BC0003C6A3B6A3A6A396A3E6A3D6AC150C00B48
:102BD0000F09C16E070EB46EBD6ABA6A040E476E65
:102BE000FA0E8C6FFCEC00F0472EFAD7A0EF01F044
:102BF0000E0E3F6E0A0E406E0E0E416E426A436A22
:102C0000446A456A466A020E476E496A3F0E486E3C
:102C1000D7EF01F0040E776F010E786FFCEC01F036
:102C2000E00EF66E010EF76E35EC02F0050E776FD2
:102C3000020E786FFCEC01F0EC0EF66E010EF76EF2
:102C400035EC02F0080E476EFA0E8C6FFCEC00F0CB
:102C5000472EFAD7F60EF66E010EF76E35EC02F03F
:102C6000F19E840ED56EF29CF29EF2BEFDD7F2501C
:102C7000006EF29EA96AA86AA69CA69EA6840F0171
:102C8000550EA76EAA0EA76EA682A6B2FED7A69470
:102C90000050F212F2CF00F0F29E010EA96E640E07
:102CA000A86EA69CA69EA684550EA76EAA0EA76E19
:102CB000A682A6B2FED7A6940050F212F2CF00F080
:102CC000F29E020EA96EA86AA69CA69EA684550E28
:102CD000A76EAA0EA76EA682A6B2FED7A694005033
:102CE000F212F2CF00F0F29E030EA96E960EA86EBD
:102CF000A69CA69EA684550EA76EAA0EA76EA682B7
:102D0000A6B2FED7A6940050F212F2CF00F0F29EC7
:102D1000040EA96EA86AA69CA69EA684550EA76E50
:102D2000AA0EA76EA682A6B2FED7A6940050F212F3
:102D3000F2CF00F0F29E050EA96E9B0EA86EA69C27
:102D4000A69EA684550EA76EAA0EA76EA682A6B250
:102D5000FED7A6940050F212F2CF00F0F29E060EBB
:102D6000A96EA86AA69CA69EA684550EA76EAA0E5A
:102D7000A76EA682A6B2FED7A6940050F212F2CF9A
:102D800000F0F29E070EA96E540EA86EA69CA69E99
:102D9000A684550EA76EAA0EA76EA682A6B2FED76F
:102DA000A6940050F212F2CF00F0F29E080EA96E27
:102DB000060EA86EA69CA69EA684550EA76EAA0E09
:102DC000A76EA682A6B2FED7A6940050F212F2CF4A
:102DD00000F0F29E090EA96E050EA86EA69CA69E96
:102DE000A684550EA76EAA0EA76EA682A6B2FED71F
:102DF000A6940050F212F2CF00F0F29E0A0EA96ED5
:102E0000040EA86EA69CA69EA684550EA76EAA0EBA
:102E1000A76EA682A6B2FED7A6940050F212F2CFF9
:102E200000F0F29E0B0EA96E030EA86EA69CA69E45
:102E3000A684550EA76EAA0EA76EA682A6B2FED7CE
:102E4000A6940050F2120001C5EF04F083EF05F0E4
:102E5000640E8C6FFCEC00F071EF0FF02BEF11F0B3
:102E60005DEF12F05DD491D55AD60400EDD7030082
:020000040030CA
:0E00000027C80E170085810000C00FE00F40DA
:00000001FF
;PIC18F2550
;CRC=2796  CREATED="27-mar-16 18:11"
